:040000002DEF77F079
:10EAFA0094EC75F01200000E4E6E4D28456E010E14
:10EB0A00466ED5EC7CF0030EE82EFED700004D28A9
:10EB1A00456E000E466ED5EC7CF0000E1200290EF2
:10EB2A00516E87EC77F0310E586EC3EC7BF03A0EDB
:10EB3A00516EB5EC75F0370E516EB5EC75F0430EAB
:10EB4A00516E05EC77F0410E516E05EC77F03F0EF1
:10EB5A00516E05EC77F03D0E516E05EC77F0120020
:10EB6A00000E526E5150D8A4BDEF75F0BFEF75F08C
:10EB7A00C3EF75F0000E536ED5EF75F051C04DF02E
:10EB8A0057EC77F0526E51284D6E57EC77F0526E73
:10EB9A005150D96EDA6A020ED926DF6A010E536E17
:10EBAA0053501200800F810F820F830F840F890F39
:10EBBA008A0F8B0F8C0F8D0F920F930F940F950F57
:10EBCA00960FC8040103070E1E1F1F1F08101828DE
:10EBDA00222A3A023139030B131B333B0011190065
:10EBEA002B00290023002100000E4E6E4D50D8A4A0
:10EBFA0001EF76F003EF76F005EF76F01DEF76F091
:10EC0A004DC045F0000E466ED5EC7CF04D50D96EE5
:10EC1A00DA6A010ED9264D50E16EE26AE7BE18EFB4
:10EC2A0076F01BEF76F0010E1CEF76F0000EDF6E29
:10EC3A001200000E4E6E4D50D8A426EF76F028EF43
:10EC4A0076F02AEF76F042EF76F04DC045F0010EED
:10EC5A00466ED5EC7CF04D50D96EDA6A010ED92693
:10EC6A004D50E16EE26AE7BE3DEF76F040EF76F096
:10EC7A00010E41EF76F0000EDF6E1200000E516EAB
:10EC8A00000E526E5FEF76F04D505224020F456E21
:10EC9A0052C04FF04EC050F04F2A56EF76F0D8903F
:10ECAA0050324F2E54EF76F05050010B466ED5EC91
:10ECBA007CF0522A030E526465EF76F067EF76F025
:10ECCA0049EF76F051501200000E4E6E4D50D8A406
:10ECDA0071EF76F073EF76F077EF76F0000E4F6E05
:10ECEA008DEF76F04DC045F0000E466ED5EC7CF007
:10ECFA004E6E4D28456E000E466ED5EC7CF04E6E7B
:10ED0A004D50D96EDA6A020ED926DF6A010E4F6EAD
:10ED1A004F501200000E4E6E4D50D8A497EF76F069
:10ED2A0099EF76F09DEF76F0000E4F6EB4EF76F025
:10ED3A004DC045F0000E466ED5EC7CF04E6E4D2867
:10ED4A00456E010E466ED5EC7CF04E6E4D50D96E76
:10ED5A00DA6A020ED926010EDF6E010E4F6E4F508F
:10ED6A001200000E4E6E4D50D8A4BEEF76F0C0EFE2
:10ED7A0076F0C4EF76F0000E4F6EDBEF76F04DC002
:10ED8A0045F0010E466ED5EC7CF04E6E4D28456E70
:10ED9A00000E466ED5EC7CF04E6E4D50D96EDA6A96
:10EDAA00020ED926010EDF6E010E4F6E4F50120071
:10EDBA00000E4F6E4D50D8B4E5EF76F0E7EF76F0DF
:10EDCA00F7EF76F04D50D96EDA6ADF30E832E83282
:10EDDA00070B4E6E070E4E64F5EF76F0F7EF76F0FE
:10EDEA00FBEF76F0000E506E03EF77F04DC045F062
:10EDFA00010E466E3BEC7CF0010E506E5050120034
:10EE0A00000E526E5150D8A40DEF77F00FEF77F045
:10EE1A0013EF77F0000E536E2BEF77F051C04DF0E1
:10EE2A0057EC77F05150D96EDA6A010ED926515053
:10EE3A00E16EE26AE7BE24EF77F027EF77F0010E82
:10EE4A0028EF77F0000EDF6E010E536E535012005A
:10EE5A00A80EF66EF00EF76E000EF86E00EE80F059
:10EE6A0010EE68F00900F5CFEEFFE550E150FAE147
:10EE7A00AE0EF66EEB0EF76E000EF86E00EE01F0B7
:10EE8A0010EE44F00900F5CFEEFFE550E150FAE14B
:10EE9A00746A736A726A716A706A000EF86E0001A7
:10EEAA006FEF7DF0000E4F6E4D50D8B45FEF77F0E4
:10EEBA0061EF77F071EF77F04D50D96EDA6ADF3093
:10EECA00E832E832070B4E6E070E4E646FEF77F0AA
:10EEDA0071EF77F075EF77F0000E506E85EF77F0EF
:10EEEA004DC045F0000E466E3BEC7CF04F6E4DC0B7
:10EEFA0045F0000E466ED5EC7CF04F6E010E506E5A
:10EF0A0050501200000E526E5150D8A48FEF77F075
:10EF1A0091EF77F095EF77F0000E536EB8EF77F038
:10EF2A00000E546E515054244D6E57EC77F0542A0B
:10EF3A00030E5464A3EF77F0A5EF77F097EF77F01D
:10EF4A00000E556E51505524040F4D6EDDEC76F0CF
:10EF5A00552A030E5564B4EF77F0B6EF77F0A7EFB2
:10EF6A0077F0010E536E53501200000E556E000ECC
:10EF7A00566E5350D8A4C4EF77F0C6EF77F0CAEFB5
:10EF8A0077F0000E576EEBEF77F053C045F0000EA6
:10EF9A00466ED5EC7CF053C04DF054380F0B4E6ED4
:10EFAA0043EC76F0566E53C04DF080EC75F0566E19
:10EFBA0053C04DF054C04EF043EC76F0566E53C039
:10EFCA004DF080EC75F0566E010E576E57501200D8
:10EFDA00000E556E000E566E5350D8A4F7EF77F018
:10EFEA00F9EF77F0FDEF77F0000E576E1EEF78F02D
:10EFFA0053C045F0010E466ED5EC7CF053C04DF07F
:10F00A0054380F0B4E6E43EC76F0566E53C04DF0EB
:10F01A0080EC75F0566E53C04DF054C04EF043EC80
:10F02A0076F0566E53C04DF080EC75F0566E010EB8
:10F03A00576E57501200000E636E000E646E5F50DA
:10F04A00D8B42AEF78F02CEF78F03CEF78F0050E80
:10F05A00606032EF78F034EF78F03CEF78F0140E1D
:10F06A0061643AEF78F03CEF78F040EF78F0000E08
:10F07A00656E52EF78F05FC058F060C059F061C019
:10F08A005AF09CEC79F0646E5FC053F062C054F0A1
:10F09A00EDEC77F0646E010E656E6550120037383C
:10F0AA00392F3435362A3132332D23303D2B1F1F69
:10F0BA000F07161C18101F00001F1F1F1F1F1F1FDE
:10F0CA001E1C0D07030110181C06031F1F1F1F1FFC
:10F0DA001F0E041F1F1F0103070E1C1F1F1F1B03E8
:10F0EA00070F1E1C18101F000000001F1F1F1318F7
:10F0FA001C1E0F07030110181C06071F1F1F1F1FC6
:10F10A001F0E0E1F1F1F310E5F6E010E606E010E65
:10F11A00616E7B0E626EFF0E636E5FEC79F0756E48
:10F12A00310E5F6E020E606E010E616EA30E626E8C
:10F13A00FF0E636E5FEC79F0756E310E5F6E030E33
:10F14A00606E010E616E3F0E626EFF0E636E5FECC3
:10F15A0079F0756E310E5F6E040E606E010E616E8F
:10F16A00030E626EFF0E636E5FEC79F0756E12002D
:10F17A00310E5F6E010E606E010E616E8F0E626E51
:10F18A00FF0E636E5FEC79F0756E310E5F6E020EE4
:10F19A00606E010E616EB70E626EFF0E636E5FECFB
:10F1AA0079F0756E310E5F6E030E606E010E616E40
:10F1BA00530E626EFF0E636E5FEC79F0756E310E60
:10F1CA005F6E040E606E010E616EDB0E626EFE0EE5
:10F1DA00636E5FEC79F0756E1200310E5F6E010E90
:10F1EA00606E010E616E670E626EFF0E636E5FECFB
:10F1FA0079F0756E310E5F6E020E606E010E616EF1
:10F20A00170E626EFF0E636E5FEC79F0756E310E4B
:10F21A005F6E030E606E010E616E2B0E626EFF0E44
:10F22A00636E5FEC79F0756E310E5F6E040E606E80
:10F23A00010E616EEF0E626EFE0E636E5FEC79F088
:10F24A00756E1200000E5B6E000E5C6E5850D8B4DC
:10F25A0031EF79F033EF79F03CEF79F059505A10E9
:10F26A00D8A43AEF79F03CEF79F04DEF79F0000E3F
:10F27A005D6E5DEF79F058C053F059C0F6FF5AC081
:10F28A00F7FF0800F5CF54F0EDEC77F0594A5A2A07
:10F29A0059C0F6FF5AC0F7FF0800F5500009D8A474
:10F2AA0059EF79F05BEF79F040EF79F0010E5D6E7E
:10F2BA005D501200000E646E000E656E5F50D8B489
:10F2CA0069EF79F06BEF79F084EF79F062506310AF
:10F2DA00D8B472EF79F074EF79F084EF79F0050E13
:10F2EA0060607AEF79F07CEF79F084EF79F0280E9C
:10F2FA00616482EF79F084EF79F088EF79F0000E9B
:10F30A00666E9AEF79F05FC058F060C059F061C03C
:10F31A005AF09CEC79F05FC058F062C059F063C0B3
:10F32A005AF027EC79F0010E666E66501200000E54
:10F33A005D6E000E5E6E5A06C7EF79F058C053F044
:10F34A005A50800F546EBAEC77F0E4EF79F058C057
:10F35A0053F05A50C00F546EBAEC77F0E4EF79F0DC
:10F36A0058C053F05A50940F546EBAEC77F0E4EF49
:10F37A0079F058C053F05A50D40F546EBAEC77F063
:10F38A00E4EF79F059505B6E5C6A5C50000AD8B4BD
:10F39A00D1EF79F0E4EF79F05B50010AD8B4A3EF2A
:10F3AA0079F0030AD8B4ACEF79F0010AD8B4B5EF12
:10F3BA0079F0070AD8B4BEEF79F0E4EF79F0000EDD
:10F3CA001200000E6B6E000E6C6E6650D8B4F0EF31
:10F3DA0079F0F2EF79F002EF7AF0050E6760F8EF54
:10F3EA0079F0FAEF79F002EF7AF0140E686400EF20
:10F3FA007AF002EF7AF006EF7AF0000E6D6E30EFD7
:10F40A007AF066C053F06A50080DF350400F546EFC
:10F41A00BAEC77F0000E716E66C053F06950712431
:10F42A00D96EDA6ADF50546EEDEC77F0712A070E66
:10F43A00716422EF7AF024EF7AF011EF7AF066C065
:10F44A005FF067C060F068C061F06AC062F020ECEB
:10F45A0078F0010E6D6E6D5012004550D8B438EF39
:10F46A007AF03AEF7AF052EF7AF04650D8B440EF99
:10F47A007AF042EF7AF052EF7AF04550D96EDA6AB2
:10F48A00DF30E832E832070B476E070E476450EF69
:10F49A007AF052EF7AF056EF7AF0000E4B6E82EF66
:10F4AA007AF04650D96EDA6A4550E16EE26AE73080
:10F4BA00E832E832070B476E4550E16EE26AE750E0
:10F4CA00070B020DF350010FE16EE26AE6CF48F036
:10F4DA00E5CF49F048C0E1FF49C0E2FFE7504A6E74
:10F4EA00472A7AEF7AF0D8904A32472E78EF7AF0A4
:10F4FA004A50010BDF6E010E4B6E4B501200310E5B
:10F50A005F6E010E606E070E616EEC0E626EFF0E8C
:10F51A00636E5FEC79F0756E310E666E020E676E81
:10F52A00090E686EB80E696E000E6A6EE6EC79F026
:10F53A00756E310E666E020E676E0A0E686EB00E3A
:10F54A00696E010E6A6EE6EC79F0756E310E666EC2
:10F55A00020E676E0B0E686EA80E696E020E6A6E58
:10F56A00E6EC79F0756E310E666E030E676E090E63
:10F57A00686EA00E696E030E6A6EE6EC79F0756E1F
:10F58A00310E666E030E676E0A0E686E980E696E0D
:10F59A00040E6A6EE6EC79F0756E310E666E030E35
:10F5AA00676E0B0E686E900E696E050E6A6EE6EC5B
:10F5BA0079F0756E310E5F6E040E606E030E616E29
:10F5CA00DD0E626EFF0E636E5FEC79F0756E1200EF
:10F5DA00310E5F6E010E606E070E616EF40E626E82
:10F5EA00FF0E636E5FEC79F0756E310E666E020E79
:10F5FA00676E090E686E210E696E000E6A6EE6EC81
:10F60A0079F0756E310E666E020E676E0A0E686EBE
:10F61A00E00E696E010E6A6EE6EC79F0756E310ED7
:10F62A00666E020E676E0B0E686ED80E696E020E5B
:10F63A006A6EE6EC79F0756E310E666E030E676ED1
:10F64A00090E686ED00E696E030E6A6EE6EC79F0EA
:10F65A00756E310E666E030E676E0A0E686EC80E00
:10F66A00696E040E6A6EE6EC79F0756E310E666E9E
:10F67A00030E676E0B0E686EC00E696E050E6A6E1B
:10F68A00E6EC79F0756E310E5F6E040E606E030E55
:10F69A00616ECB0E626EFF0E636E5FEC79F0756E73
:10F6AA001200000E506E4D50D8B45EEF7BF060EF42
:10F6BA007BF068EF7BF04E50D8A466EF7BF068EFE2
:10F6CA007BF06CEF7BF0000E516EC1EF7BF0000E09
:10F6DA00546E000E536E4D505324456E000E466E06
:10F6EA00D5EC7CF0532A030E53647EEF7BF080EF57
:10F6FA007BF070EF7BF04D505424456E010E466E40
:10F70A00D5EC7CF01A0E4F6EF80EE82EFED74F2E6F
:10F71A00FCD700D0000E556E4D505524040F456E8F
:10F72A00520E466E32EC7AF05204D8A49FEF7BF068
:10F73A00A1EF7BF0ADEF7BF05450040DF350800F36
:10F74A005524D96EDA6A4E50E16EE26ADFCFE7FFDE
:10F75A00552A030E5564B4EF7BF0B6EF7BF091EFB8
:10F76A007BF0542A030E5464BDEF7BF0BFEF7BF0AD
:10F77A006EEF7BF0010E516E51501200000E5A6E60
:10F78A00000E5D6E5850D8A4CDEF7BF0CFEF7BF022
:10F79A00D3EF7BF0000E5B6E39EF7CF058284D6E8C
:10F7AA0057EC77F05A6E58C04DF057EC77F05A6E16
:10F7BA00000E5C6EE8EF7BF058505C24020F4D6E31
:10F7CA0057EC77F05C2A030E5C64EEEF7BF0F0EF07
:10F7DA007BF0E1EF7BF0340E596EF20EE82EFED785
:10F7EA00592EFCD758C053F0380E546EBAEC77F045
:10F7FA000D0E596EFC0EE82EFED7592EFCD758C0B6
:10F80A0053F0380E546EBAEC77F0640EE82EFED739
:10F81A0058C053F0380E546EBAEC77F058C053F013
:10F82A00010E546EBAEC77F058C053F0020E546EC3
:10F83A00BAEC77F058C053F0060E546EBAEC77F073
:10F84A0058C053F00C0E546EBAEC77F058C053F00F
:10F85A00800E546EBAEC77F058C053F0280E546EEE
:10F86A00BAEC77F0010E5B6E5B5012004550D8B4CB
:10F87A0041EF7CF043EF7CF05BEF7CF04550D96EB2
:10F88A00DA6ADF30E832E832070B476E080E476063
:10F89A0051EF7CF053EF7CF05BEF7CF0010E466495
:10F8AA0059EF7CF05BEF7CF0B4EF7CF0000E4C6E0D
:10F8BA00D3EF7CF04550D96EDA6ADF30E832E832AD
:10F8CA00070B476E010E486E472A6EEF7CF0D89000
:10F8DA004836472E6CEF7CF04850FF0A496E455077
:10F8EA00D96EDA6ADF50070B020DF350150FD96E85
:10F8FA00DA6ADECF4AF0DDCF4BF04AC0D9FF4BC0FF
:10F90A00DAFF4950DF16C9EF7CF04550D96EDA6A42
:10F91A00DF30E832E832070B476E010E486E472A9D
:10F92A0099EF7CF0D8904836472E97EF7CF04550F7
:10F93A00D96EDA6ADF50070B020DF350150FD96E34
:10F94A00DA6ADECF49F0DDCF4AF049C0D9FF4AC0B2
:10F95A00DAFF4850DF12C9EF7CF0C9EF7CF046505D
:10F96A00476E486A4850000AD8B4BEEF7CF0B2EF3E
:10F97A007CF04750000AD8B45FEF7CF0010AD8B493
:10F98A008AEF7CF0B2EF7CF04550D96EDA6A46B065
:10F99A0002D0DF9C01D0DF8C010E4C6E4C5012005D
:10F9AA004550D8B4DBEF7CF0DDEF7CF0F5EF7CF06E
:10F9BA004550D96EDA6ADF30E832E832070B476E13
:10F9CA00080E4760EBEF7CF0EDEF7CF0F5EF7CF092
:10F9DA00010E4664F3EF7CF0F5EF7CF04EEF7DF01C
:10F9EA00000E4C6E6DEF7DF04550D96EDA6ADF304D
:10F9FA00E832E832070B476E010E486E472A08EFD5
:10FA0A007DF0D8904836472E06EF7DF04850FF0A21
:10FA1A00496E4550D96EDA6ADF50070B020DF35072
:10FA2A000B0FD96EDA6ADECF4AF0DDCF4BF04AC04F
:10FA3A00D9FF4BC0DAFF4950DF1663EF7DF045501E
:10FA4A00D96EDA6ADF30E832E832070B476E010E08
:10FA5A00486E472A33EF7DF0D8904836472E31EF6B
:10FA6A007DF04550D96EDA6ADF50070B020DF3506C
:10FA7A000B0FD96EDA6ADECF49F0DDCF4AF049C002
:10FA8A00D9FF4AC0DAFF4850DF1263EF7DF063EF17
:10FA9A007DF04650476E486A4850000AD8B458EF7D
:10FAAA007DF04CEF7DF04750000AD8B4F9EF7CF0B6
:10FABA00010AD8B424EF7DF04CEF7DF04550D96EA1
:10FACA00DA6A46B002D0DF9E01D0DF8E010E4C6E9C
:10FADA004C5012007DEC75F0EDEC7AF07EEF7DF083
:10FAEA00EDEC7AF0290E4D6E740E4E6E56EC7BF0EC
:10FAFA00756E7450D8B484EF7DF086EF7DF075EFA3
:10FB0A007DF0030E6F6E080E6E6E770EE82EFED72E
:10FB1A006E2EFCD76F2EFAD70000230E7418D8A4C5
:10FB2A0099EF7DF09BEF7DF067EF7FF0F2EC78F0D4
:10FB3A00290E4D6E730E4E6E56EC7BF0756E300EBE
:10FB4A007318D8B4ABEF7DF0ADEF7DF09DEF7DF08B
:10FB5A00020E6F6E040E6E6EBA0EE82EFED76E2E71
:10FB6A00FCD76F2EFAD700D087EF7EF088EC78F0BA
:10FB7A00290E4D6E720E4E6E56EC7BF0756E7250FB
:10FB8A00D8B4CAEF7DF0CCEF7DF0BBEF7DF0030E69
:10FB9A006F6E080E6E6E770EE82EFED76E2EFCD7AD
:10FBAA006F2EFAD70000310E7218D8A4DFEF7DF05D
:10FBBA00E1EF7DF0F2EF7DF0430E4D6E1EEC76F034
:10FBCA00410E4D6EF9EC75F03A0E4D6EB6EC76F0CC
:10FBDA00756E000E726E87EF7EF0320E7218D8A420
:10FBEA00F9EF7DF0FBEF7DF00AEF7EF0430E4D6EEC
:10FBFA00F9EC75F0410E4D6E1EEC76F03A0E4D6E34
:10FC0A008FEC76F0756EEEEF7DF0340E7218D8A494
:10FC1A0011EF7EF013EF7EF022EF7EF0430E4D6E71
:10FC2A00F9EC75F0410E4D6EF9EC75F03A0E4D6E29
:10FC3A0069EC76F0756EEEEF7DF0350E7218D8A489
:10FC4A0029EF7EF02BEF7EF031EF7EF0000E736E1F
:10FC5A00000E726E5CEF7FF0230E7218D8A438EF94
:10FC6A007EF03AEF7EF06AEF7EF0430E4D6EF9ECCD
:10FC7A0075F0410E4D6EF9EC75F03A0E4D6E69EC69
:10FC8A0076F0756E3F0E4D6EF9EC75F03D0E4D6EC9
:10FC9A00F9EC75F0370E4D6E69EC76F0756E310E33
:10FCAA00536E010E546EBAEC77F0756E310E536EC8
:10FCBA00020E546EBAEC77F0756E000E746E000E7A
:10FCCA00736E000E726E5CEF7FF0310E536E010E92
:10FCDA00546EBAEC77F0756E310E536E020E546E96
:10FCEA00BAEC77F0756E84EC7AF00B0E6F6E260E16
:10FCFA006E6E5E0EE82EFED76E2EFCD76F2EFAD7EA
:10FD0A00EEEF7DF0310E7318D8B48EEF7EF090EFDF
:10FD1A007EF0BBEF7DF05CEF7FF0BDEC78F0290E52
:10FD2A004D6E720E4E6E56EC7BF0756E7250D8B4F4
:10FD3A00A1EF7EF0A3EF7EF092EF7EF0030E6F6EDE
:10FD4A00080E6E6E770EE82EFED76E2EFCD76F2E3B
:10FD5A00FAD70000310E7218D8A4B6EF7EF0B8EFC9
:10FD6A007EF0C7EF7EF03F0E4D6E1EEC76F03D0E34
:10FD7A004D6EF9EC75F0370E4D6EB6EC76F0756E89
:10FD8A0066EF7EF0320E7218D8A4CEEF7EF0D0EF76
:10FD9A007EF0DFEF7EF03F0E4D6EF9EC75F03D0E12
:10FDAA004D6E1EEC76F0370E4D6E8FEC76F0756E5A
:10FDBA0066EF7EF0340E7218D8A4E6EF7EF0E8EF14
:10FDCA007EF0F7EF7EF03F0E4D6EF9EC75F03D0ECA
:10FDDA004D6EF9EC75F0370E4D6E69EC76F0756E76
:10FDEA0066EF7EF0350E7218D8A4FEEF7EF000EFB3
:10FDFA007FF006EF7FF0000E736E000E726E7EEFDC
:10FE0A007DF0230E7218D8A40DEF7FF00FEF7FF06C
:10FE1A003FEF7FF0430E4D6EF9EC75F0410E4D6EDB
:10FE2A00F9EC75F03A0E4D6E69EC76F0756E3F0E90
:10FE3A004D6EF9EC75F03D0E4D6EF9EC75F0370E1E
:10FE4A004D6E69EC76F0756E310E536E010E546E7E
:10FE5A00BAEC77F0756E310E536E020E546EBAEC30
:10FE6A0077F0756E000E746E000E736E000E726E71
:10FE7A007EEF7DF0310E536E010E546EBAEC77F0C0
:10FE8A00756E310E536E020E546EBAEC77F0756EC3
:10FE9A0084EC7AF00B0E6F6E260E6E6E5E0EE82EF6
:10FEAA00FED76E2EFCD76F2EFAD766EF7EF0320E93
:10FEBA007318D8B463EF7FF065EF7FF092EF7EF0AE
:10FECA007EEF7DF0000E746E7EEF7DF000EF00F0A5
:10FEDA0000352D6261636B2020A0A0A0A0A0A0A085
:10FEEA00A0A0A0A000202020202020202020202028
:10FEFA00202020202020202000352D6261636B20E5
:10FF0A0020202020202020202020202000312D6D9C
:10FF1A006F746F7231202020202020202020202082
:10FF2A0000322D6D6F746F72322020202020202025
:10FF3A002020202000342D6D6F746F7231206F667F
:10FF4A00662020202020202000342D6D6F746F72CF
:10FF5A0032206F6666202020202020200073656CE6
:10FF6A00656374206D6F746F72202020202020201A
:10FF7A0000312D6D6F746F7231206F6E20435720E0
:10FF8A002020202000312D6D6F746F7232206F6E29
:10FF9A00204357202020202000322D6D6F746F726D
:10FFAA0031206F6E204343572020202000322D6DD0
:10FFBA006F746F7232206F6E2043435720202020C7
:10FFCA00007072657373206F6E20746F2073746192
:10FFDA00727400656E7465722076616C6964206F54
:10FFEA007000696E76616C69640077656C636F6D29
:06FFFA006500256900000E
:020000040030CA
:0E000000FF02091EFF8181FF0FC00FE00F40BD
:00000001FF
